:1000000000308A001828000011308400000803190D
:10001000172801308D008C018C0B0C288D0B0B28C0
:100020004A308C008C0B12281528800B09280800F8
:1000300003081F398300FF308316850003308600D4
:1000400083120611861106128612061386130518EE
:100050003128101831280430860610140A30910017
:100060000420051C3928101C392810100A30910072
:1000700004208518432890184328083086069014D9
:100080000A3091000420851C4B28901C4B289010AE
:100090000A309100042005195528101955281030F0
:1000A000860610150A3091000420051D5D28101DDC
:1000B0005D2810110A3091000420851967289019D5
:1000C00067282030860690150A3091000420851D8F
:1000D0006F28901D6F2890110A3091000420061897
:1000E0007A28101A7A2840308606861310160A30AD
:1000F00091000420061C8228101E822810120A304B
:100100009100042086188D28901A8D28803086064C
:10011000061390160A3091000420861C9528901E24
:10012000952890120A3091000420051A9F28101B70
:100130009F288613061310170A3091000420051E0D
:10014000A728101FA72810130A3091000420272881
:0201500063004A
:02400E00F13F80
:00000001FF
;PIC16F84A
;CRC=4B21  CREATED="14-Aug-14 13:57"
